{
  "contractName": "CertStore",
  "abi": [
    {
      "constant": true,
      "inputs": [],
      "name": "getUsers",
      "outputs": [
        {
          "name": "",
          "type": "address[10]"
        }
      ],
      "payable": false,
      "stateMutability": "view",
      "type": "function"
    },
    {
      "constant": true,
      "inputs": [
        {
          "name": "",
          "type": "address"
        }
      ],
      "name": "accountableIntitutions",
      "outputs": [
        {
          "name": "",
          "type": "bool"
        }
      ],
      "payable": false,
      "stateMutability": "view",
      "type": "function"
    },
    {
      "constant": true,
      "inputs": [
        {
          "name": "universityCode",
          "type": "string"
        },
        {
          "name": "studentID",
          "type": "string"
        },
        {
          "name": "certID",
          "type": "string"
        },
        {
          "name": "course",
          "type": "string"
        }
      ],
      "name": "verifyProof",
      "outputs": [
        {
          "name": "returnCode",
          "type": "bool"
        }
      ],
      "payable": false,
      "stateMutability": "view",
      "type": "function"
    },
    {
      "constant": true,
      "inputs": [],
      "name": "universitiesCount",
      "outputs": [
        {
          "name": "",
          "type": "uint256"
        }
      ],
      "payable": false,
      "stateMutability": "view",
      "type": "function"
    },
    {
      "constant": true,
      "inputs": [
        {
          "name": "",
          "type": "uint256"
        }
      ],
      "name": "users",
      "outputs": [
        {
          "name": "",
          "type": "address"
        }
      ],
      "payable": false,
      "stateMutability": "view",
      "type": "function"
    },
    {
      "constant": false,
      "inputs": [
        {
          "name": "_universityAddress",
          "type": "address"
        }
      ],
      "name": "addUniversity",
      "outputs": [
        {
          "name": "returnCode",
          "type": "bool"
        }
      ],
      "payable": false,
      "stateMutability": "nonpayable",
      "type": "function"
    },
    {
      "constant": false,
      "inputs": [
        {
          "name": "_usersAddress",
          "type": "address"
        }
      ],
      "name": "addUser",
      "outputs": [
        {
          "name": "returnCode",
          "type": "bool"
        }
      ],
      "payable": false,
      "stateMutability": "nonpayable",
      "type": "function"
    },
    {
      "constant": true,
      "inputs": [
        {
          "name": "",
          "type": "bytes32"
        }
      ],
      "name": "proofs",
      "outputs": [
        {
          "name": "universityCode",
          "type": "string"
        },
        {
          "name": "studentID",
          "type": "string"
        },
        {
          "name": "certID",
          "type": "string"
        },
        {
          "name": "course",
          "type": "string"
        },
        {
          "name": "initialized",
          "type": "bool"
        }
      ],
      "payable": false,
      "stateMutability": "view",
      "type": "function"
    },
    {
      "constant": true,
      "inputs": [],
      "name": "usersCount",
      "outputs": [
        {
          "name": "",
          "type": "uint256"
        }
      ],
      "payable": false,
      "stateMutability": "view",
      "type": "function"
    },
    {
      "constant": true,
      "inputs": [],
      "name": "owner",
      "outputs": [
        {
          "name": "",
          "type": "address"
        }
      ],
      "payable": false,
      "stateMutability": "view",
      "type": "function"
    },
    {
      "constant": true,
      "inputs": [
        {
          "name": "",
          "type": "uint256"
        }
      ],
      "name": "universities",
      "outputs": [
        {
          "name": "",
          "type": "address"
        }
      ],
      "payable": false,
      "stateMutability": "view",
      "type": "function"
    },
    {
      "constant": true,
      "inputs": [
        {
          "name": "proof",
          "type": "bytes32"
        }
      ],
      "name": "verifyProof",
      "outputs": [
        {
          "name": "returnCode",
          "type": "bool"
        }
      ],
      "payable": false,
      "stateMutability": "view",
      "type": "function"
    },
    {
      "constant": true,
      "inputs": [],
      "name": "getUniversities",
      "outputs": [
        {
          "name": "",
          "type": "address[10]"
        }
      ],
      "payable": false,
      "stateMutability": "view",
      "type": "function"
    },
    {
      "constant": false,
      "inputs": [
        {
          "name": "universityCode",
          "type": "string"
        },
        {
          "name": "studentID",
          "type": "string"
        },
        {
          "name": "certID",
          "type": "string"
        },
        {
          "name": "course",
          "type": "string"
        }
      ],
      "name": "storeProof",
      "outputs": [
        {
          "name": "returnCode",
          "type": "bool"
        }
      ],
      "payable": false,
      "stateMutability": "nonpayable",
      "type": "function"
    },
    {
      "constant": false,
      "inputs": [
        {
          "name": "newOwner",
          "type": "address"
        }
      ],
      "name": "transferOwnership",
      "outputs": [],
      "payable": false,
      "stateMutability": "nonpayable",
      "type": "function"
    },
    {
      "inputs": [],
      "payable": false,
      "stateMutability": "nonpayable",
      "type": "constructor"
    },
    {
      "anonymous": false,
      "inputs": [
        {
          "indexed": false,
          "name": "proof",
          "type": "bytes32"
        },
        {
          "indexed": false,
          "name": "universityCode",
          "type": "string"
        },
        {
          "indexed": false,
          "name": "studentID",
          "type": "string"
        },
        {
          "indexed": false,
          "name": "certID",
          "type": "string"
        },
        {
          "indexed": false,
          "name": "course",
          "type": "string"
        },
        {
          "indexed": false,
          "name": "_time",
          "type": "uint256"
        }
      ],
      "name": "LogProofSaved",
      "type": "event"
    },
    {
      "anonymous": false,
      "inputs": [
        {
          "indexed": false,
          "name": "_university",
          "type": "address"
        },
        {
          "indexed": false,
          "name": "_time",
          "type": "uint256"
        }
      ],
      "name": "LogAddUniversity",
      "type": "event"
    },
    {
      "anonymous": false,
      "inputs": [
        {
          "indexed": false,
          "name": "_user",
          "type": "address"
        },
        {
          "indexed": false,
          "name": "_time",
          "type": "uint256"
        }
      ],
      "name": "LogAddUser",
      "type": "event"
    },
    {
      "anonymous": false,
      "inputs": [
        {
          "indexed": true,
          "name": "previousOwner",
          "type": "address"
        },
        {
          "indexed": true,
          "name": "newOwner",
          "type": "address"
        }
      ],
      "name": "OwnershipTransferred",
      "type": "event"
    }
  ],
  "bytecode": "0x606060405234156200001057600080fd5b336000806101000a81548173ffffffffffffffffffffffffffffffffffffffff021916908373ffffffffffffffffffffffffffffffffffffffff16021790555060016018600073f6b39ce8221a48a0ceca0b4d375682c622e1829b73ffffffffffffffffffffffffffffffffffffffff1673ffffffffffffffffffffffffffffffffffffffff16815260200190815260200160002060006101000a81548160ff02191690831515021790555073afb2ddcf3a047c4849bb0971b424cd62cfb4ea3160016000600a81101515620000e257fe5b0160006101000a81548173ffffffffffffffffffffffffffffffffffffffff021916908373ffffffffffffffffffffffffffffffffffffffff16021790555060016018600073afb2ddcf3a047c4849bb0971b424cd62cfb4ea3173ffffffffffffffffffffffffffffffffffffffff1673ffffffffffffffffffffffffffffffffffffffff16815260200190815260200160002060006101000a81548160ff02191690831515021790555073c5fdf4076b8f3a5357c5e395ab970b5b54098fef600180600a81101515620001b257fe5b0160006101000a81548173ffffffffffffffffffffffffffffffffffffffff021916908373ffffffffffffffffffffffffffffffffffffffff16021790555060016018600073c5fdf4076b8f3a5357c5e395ab970b5b54098fef73ffffffffffffffffffffffffffffffffffffffff1673ffffffffffffffffffffffffffffffffffffffff16815260200190815260200160002060006101000a81548160ff0219169083151502179055507374d6d051b6004c99ffc932540bb5c06f7affba6260016002600a811015156200028357fe5b0160006101000a81548173ffffffffffffffffffffffffffffffffffffffff021916908373ffffffffffffffffffffffffffffffffffffffff1602179055506001601860007374d6d051b6004c99ffc932540bb5c06f7affba6273ffffffffffffffffffffffffffffffffffffffff1673ffffffffffffffffffffffffffffffffffffffff16815260200190815260200160002060006101000a81548160ff0219169083151502179055506003600b8190555073217735c6cf3c09037eab60f7c4fad2c197994d7d600c6000600a811015156200035c57fe5b0160006101000a81548173ffffffffffffffffffffffffffffffffffffffff021916908373ffffffffffffffffffffffffffffffffffffffff16021790555073e292c3f3f11f63a33fda8ee168d3797e5e7a16c5600c6001600a81101515620003c157fe5b0160006101000a81548173ffffffffffffffffffffffffffffffffffffffff021916908373ffffffffffffffffffffffffffffffffffffffff16021790555073a00791da14b623d56d4c5598eaf478c7c4a5945a600c6002600a811015156200042657fe5b0160006101000a81548173ffffffffffffffffffffffffffffffffffffffff021916908373ffffffffffffffffffffffffffffffffffffffff16021790555073d067220c87d629110eba04ec5d00272b2139b954600c6003600a811015156200048b57fe5b0160006101000a81548173ffffffffffffffffffffffffffffffffffffffff021916908373ffffffffffffffffffffffffffffffffffffffff1602179055506004601681905550620005c86040805190810160405280600281526020017f554a0000000000000000000000000000000000000000000000000000000000008152506040805190810160405280600d81526020017f38323035323135303839303834000000000000000000000000000000000000008152506040805190810160405280600881526020017f41424344313233340000000000000000000000000000000000000000000000008152506040805190810160405280600381526020017f4253430000000000000000000000000000000000000000000000000000000000815250620005cf6401000000000262000fe9176401000000009004565b5062000bb4565b6000620005db62000a9f565b6000601860003373ffffffffffffffffffffffffffffffffffffffff1673ffffffffffffffffffffffffffffffffffffffff16815260200190815260200160002060009054906101000a900460ff1615156200063657600080fd5b60a060405190810160405280888152602001878152602001868152602001858152602001600115158152509150868686866040518085805190602001908083835b6020831015156200069e578051825260208201915060208101905060208303925062000677565b6001836020036101000a03801982511681845116808217855250505050505090500184805190602001908083835b602083101515620006f35780518252602082019150602081019050602083039250620006cc565b6001836020036101000a03801982511681845116808217855250505050505090500183805190602001908083835b60208310151562000748578051825260208201915060208101905060208303925062000721565b6001836020036101000a03801982511681845116808217855250505050505090500182805190602001908083835b6020831015156200079d578051825260208201915060208101905060208303925062000776565b6001836020036101000a038019825116818451168082178552505050505050905001945050505050604051809103902090508160176000836000191660001916815260200190815260200160002060008201518160000190805190602001906200080992919062000af1565b5060208201518160010190805190602001906200082892919062000af1565b5060408201518160020190805190602001906200084792919062000af1565b5060608201518160030190805190602001906200086692919062000af1565b5060808201518160040160006101000a81548160ff0219169083151502179055509050507f21683a7e28289a801955bd49bac8c81ff758ac6c8dde8bdb3efa942e122f03548188888888426040518087600019166000191681526020018060200180602001806020018060200186815260200185810385528a818151815260200191508051906020019080838360005b8381101562000913578082015181840152602081019050620008f6565b50505050905090810190601f168015620009415780820380516001836020036101000a031916815260200191505b50858103845289818151815260200191508051906020019080838360005b838110156200097c5780820151818401526020810190506200095f565b50505050905090810190601f168015620009aa5780820380516001836020036101000a031916815260200191505b50858103835288818151815260200191508051906020019080838360005b83811015620009e5578082015181840152602081019050620009c8565b50505050905090810190601f16801562000a135780820380516001836020036101000a031916815260200191505b50858103825287818151815260200191508051906020019080838360005b8381101562000a4e57808201518184015260208101905062000a31565b50505050905090810190601f16801562000a7c5780820380516001836020036101000a031916815260200191505b509a505050505050505050505060405180910390a1600192505050949350505050565b60a06040519081016040528062000ab562000b78565b815260200162000ac462000b78565b815260200162000ad362000b78565b815260200162000ae262000b78565b81526020016000151581525090565b828054600181600116156101000203166002900490600052602060002090601f016020900481019282601f1062000b3457805160ff191683800117855562000b65565b8280016001018555821562000b65579182015b8281111562000b6457825182559160200191906001019062000b47565b5b50905062000b74919062000b8c565b5090565b602060405190810160405280600081525090565b62000bb191905b8082111562000bad57600081600090555060010162000b93565b5090565b90565b61175d8062000bc46000396000f3006060604052600436106100da576000357c0100000000000000000000000000000000000000000000000000000000900463ffffffff168062ce8e3e146100df57806306bd96071461013057806310f02d321461018157806329e493b2146102bf578063365b98b2146102e857806339bdf2a11461034b578063421b2d8b1461039c578063444d95b0146103ed5780636ba13a82146106505780638da5cb5b146106795780639c38f65f146106ce578063b142b4ec14610731578063b934282214610770578063cd91a013146107c1578063f2fde38b146108ff575b600080fd5b34156100ea57600080fd5b6100f2610938565b6040518082600a60200280838360005b8381101561011d578082015181840152602081019050610102565b5050505090500191505060405180910390f35b341561013b57600080fd5b610167600480803573ffffffffffffffffffffffffffffffffffffffff169060200190919050506109b9565b604051808215151515815260200191505060405180910390f35b341561018c57600080fd5b6102a5600480803590602001908201803590602001908080601f0160208091040260200160405190810160405280939291908181526020018383808284378201915050505050509190803590602001908201803590602001908080601f0160208091040260200160405190810160405280939291908181526020018383808284378201915050505050509190803590602001908201803590602001908080601f0160208091040260200160405190810160405280939291908181526020018383808284378201915050505050509190803590602001908201803590602001908080601f016020809104026020016040519081016040528093929190818152602001838380828437820191505050505050919050506109d9565b604051808215151515815260200191505060405180910390f35b34156102ca57600080fd5b6102d2610b88565b6040518082815260200191505060405180910390f35b34156102f357600080fd5b6103096004808035906020019091905050610b8e565b604051808273ffffffffffffffffffffffffffffffffffffffff1673ffffffffffffffffffffffffffffffffffffffff16815260200191505060405180910390f35b341561035657600080fd5b610382600480803573ffffffffffffffffffffffffffffffffffffffff16906020019091905050610bc3565b604051808215151515815260200191505060405180910390f35b34156103a757600080fd5b6103d3600480803573ffffffffffffffffffffffffffffffffffffffff16906020019091905050610d4f565b604051808215151515815260200191505060405180910390f35b34156103f857600080fd5b610412600480803560001916906020019091905050610e83565b60405180806020018060200180602001806020018615151515815260200185810385528a8181546001816001161561010002031660029004815260200191508054600181600116156101000203166002900480156104b15780601f10610486576101008083540402835291602001916104b1565b820191906000526020600020905b81548152906001019060200180831161049457829003601f168201915b50508581038452898181546001816001161561010002031660029004815260200191508054600181600116156101000203166002900480156105345780601f1061050957610100808354040283529160200191610534565b820191906000526020600020905b81548152906001019060200180831161051757829003601f168201915b50508581038352888181546001816001161561010002031660029004815260200191508054600181600116156101000203166002900480156105b75780601f1061058c576101008083540402835291602001916105b7565b820191906000526020600020905b81548152906001019060200180831161059a57829003601f168201915b505085810382528781815460018160011615610100020316600290048152602001915080546001816001161561010002031660029004801561063a5780601f1061060f5761010080835404028352916020019161063a565b820191906000526020600020905b81548152906001019060200180831161061d57829003601f168201915b5050995050505050505050505060405180910390f35b341561065b57600080fd5b610663610ec2565b6040518082815260200191505060405180910390f35b341561068457600080fd5b61068c610ec8565b604051808273ffffffffffffffffffffffffffffffffffffffff1673ffffffffffffffffffffffffffffffffffffffff16815260200191505060405180910390f35b34156106d957600080fd5b6106ef6004808035906020019091905050610eed565b604051808273ffffffffffffffffffffffffffffffffffffffff1673ffffffffffffffffffffffffffffffffffffffff16815260200191505060405180910390f35b341561073c57600080fd5b610756600480803560001916906020019091905050610f22565b604051808215151515815260200191505060405180910390f35b341561077b57600080fd5b610783610f68565b6040518082600a60200280838360005b838110156107ae578082015181840152602081019050610793565b5050505090500191505060405180910390f35b34156107cc57600080fd5b6108e5600480803590602001908201803590602001908080601f0160208091040260200160405190810160405280939291908181526020018383808284378201915050505050509190803590602001908201803590602001908080601f0160208091040260200160405190810160405280939291908181526020018383808284378201915050505050509190803590602001908201803590602001908080601f0160208091040260200160405190810160405280939291908181526020018383808284378201915050505050509190803590602001908201803590602001908080601f01602080910402602001604051908101604052809392919081815260200183838082843782019150505050505091905050610fe9565b604051808215151515815260200191505060405180910390f35b341561090a57600080fd5b610936600480803573ffffffffffffffffffffffffffffffffffffffff1690602001909190505061149a565b005b6109406115ef565b600c600a806020026040519081016040528092919082600a80156109af576020028201915b8160009054906101000a900473ffffffffffffffffffffffffffffffffffffffff1673ffffffffffffffffffffffffffffffffffffffff1681526020019060010190808311610965575b5050505050905090565b60186020528060005260406000206000915054906101000a900460ff1681565b600080858585856040518085805190602001908083835b602083101515610a1557805182526020820191506020810190506020830392506109f0565b6001836020036101000a03801982511681845116808217855250505050505090500184805190602001908083835b602083101515610a685780518252602082019150602081019050602083039250610a43565b6001836020036101000a03801982511681845116808217855250505050505090500183805190602001908083835b602083101515610abb5780518252602082019150602081019050602083039250610a96565b6001836020036101000a03801982511681845116808217855250505050505090500182805190602001908083835b602083101515610b0e5780518252602082019150602081019050602083039250610ae9565b6001836020036101000a0380198251168184511680821785525050505050509050019450505050506040518091039020905060176000826000191660001916815260200190815260200160002060040160009054906101000a900460ff1615610b7a5760019150610b7f565b600091505b50949350505050565b600b5481565b600c81600a81101515610b9d57fe5b016000915054906101000a900473ffffffffffffffffffffffffffffffffffffffff1681565b60008060009054906101000a900473ffffffffffffffffffffffffffffffffffffffff1673ffffffffffffffffffffffffffffffffffffffff163373ffffffffffffffffffffffffffffffffffffffff16141515610c2057600080fd5b816001600b54600a81101515610c3257fe5b0160006101000a81548173ffffffffffffffffffffffffffffffffffffffff021916908373ffffffffffffffffffffffffffffffffffffffff1602179055506001601860008473ffffffffffffffffffffffffffffffffffffffff1673ffffffffffffffffffffffffffffffffffffffff16815260200190815260200160002060006101000a81548160ff021916908315150217905550600b600081548092919060010191905055507f4c1c73a4b62341301364bebceecd72971c7dbb54ab1f86e3f37552d9d12d51b88242604051808373ffffffffffffffffffffffffffffffffffffffff1673ffffffffffffffffffffffffffffffffffffffff1681526020018281526020019250505060405180910390a160019050919050565b60008060009054906101000a900473ffffffffffffffffffffffffffffffffffffffff1673ffffffffffffffffffffffffffffffffffffffff163373ffffffffffffffffffffffffffffffffffffffff16141515610dac57600080fd5b81600c601654600a81101515610dbe57fe5b0160006101000a81548173ffffffffffffffffffffffffffffffffffffffff021916908373ffffffffffffffffffffffffffffffffffffffff1602179055506016600081548092919060010191905055507f1ffebef191be1995b51be1957983f16b13ca3a45104a021ab1c59a9c2c96bd8c8242604051808373ffffffffffffffffffffffffffffffffffffffff1673ffffffffffffffffffffffffffffffffffffffff1681526020018281526020019250505060405180910390a160019050919050565b601760205280600052604060002060009150905080600001908060010190806002019080600301908060040160009054906101000a900460ff16905085565b60165481565b6000809054906101000a900473ffffffffffffffffffffffffffffffffffffffff1681565b600181600a81101515610efc57fe5b016000915054906101000a900473ffffffffffffffffffffffffffffffffffffffff1681565b600060176000836000191660001916815260200190815260200160002060040160009054906101000a900460ff1615610f5e5760019050610f63565b600090505b919050565b610f706115ef565b6001600a806020026040519081016040528092919082600a8015610fdf576020028201915b8160009054906101000a900473ffffffffffffffffffffffffffffffffffffffff1673ffffffffffffffffffffffffffffffffffffffff1681526020019060010190808311610f95575b5050505050905090565b6000610ff361162e565b6000601860003373ffffffffffffffffffffffffffffffffffffffff1673ffffffffffffffffffffffffffffffffffffffff16815260200190815260200160002060009054906101000a900460ff16151561104d57600080fd5b60a060405190810160405280888152602001878152602001868152602001858152602001600115158152509150868686866040518085805190602001908083835b6020831015156110b3578051825260208201915060208101905060208303925061108e565b6001836020036101000a03801982511681845116808217855250505050505090500184805190602001908083835b60208310151561110657805182526020820191506020810190506020830392506110e1565b6001836020036101000a03801982511681845116808217855250505050505090500183805190602001908083835b6020831015156111595780518252602082019150602081019050602083039250611134565b6001836020036101000a03801982511681845116808217855250505050505090500182805190602001908083835b6020831015156111ac5780518252602082019150602081019050602083039250611187565b6001836020036101000a03801982511681845116808217855250505050505090500194505050505060405180910390209050816017600083600019166000191681526020019081526020016000206000820151816000019080519060200190611216929190611678565b506020820151816001019080519060200190611233929190611678565b506040820151816002019080519060200190611250929190611678565b50606082015181600301908051906020019061126d929190611678565b5060808201518160040160006101000a81548160ff0219169083151502179055509050507f21683a7e28289a801955bd49bac8c81ff758ac6c8dde8bdb3efa942e122f03548188888888426040518087600019166000191681526020018060200180602001806020018060200186815260200185810385528a818151815260200191508051906020019080838360005b838110156113185780820151818401526020810190506112fd565b50505050905090810190601f1680156113455780820380516001836020036101000a031916815260200191505b50858103845289818151815260200191508051906020019080838360005b8381101561137e578082015181840152602081019050611363565b50505050905090810190601f1680156113ab5780820380516001836020036101000a031916815260200191505b50858103835288818151815260200191508051906020019080838360005b838110156113e45780820151818401526020810190506113c9565b50505050905090810190601f1680156114115780820380516001836020036101000a031916815260200191505b50858103825287818151815260200191508051906020019080838360005b8381101561144a57808201518184015260208101905061142f565b50505050905090810190601f1680156114775780820380516001836020036101000a031916815260200191505b509a505050505050505050505060405180910390a1600192505050949350505050565b6000809054906101000a900473ffffffffffffffffffffffffffffffffffffffff1673ffffffffffffffffffffffffffffffffffffffff163373ffffffffffffffffffffffffffffffffffffffff161415156114f557600080fd5b600073ffffffffffffffffffffffffffffffffffffffff168173ffffffffffffffffffffffffffffffffffffffff161415151561153157600080fd5b8073ffffffffffffffffffffffffffffffffffffffff166000809054906101000a900473ffffffffffffffffffffffffffffffffffffffff1673ffffffffffffffffffffffffffffffffffffffff167f8be0079c531659141344cd1fd0a4f28419497f9722a3daafe3b4186f6b6457e060405160405180910390a3806000806101000a81548173ffffffffffffffffffffffffffffffffffffffff021916908373ffffffffffffffffffffffffffffffffffffffff16021790555050565b61014060405190810160405280600a905b600073ffffffffffffffffffffffffffffffffffffffff168152602001906001900390816116005790505090565b60a0604051908101604052806116426116f8565b815260200161164f6116f8565b815260200161165c6116f8565b81526020016116696116f8565b81526020016000151581525090565b828054600181600116156101000203166002900490600052602060002090601f016020900481019282601f106116b957805160ff19168380011785556116e7565b828001600101855582156116e7579182015b828111156116e65782518255916020019190600101906116cb565b5b5090506116f4919061170c565b5090565b602060405190810160405280600081525090565b61172e91905b8082111561172a576000816000905550600101611712565b5090565b905600a165627a7a72305820363c8cd24ee9926e46d569dd5d3c1d6aca1b5a1ee7456bc1f8d26f40874db2e20029",
  "source": "pragma solidity ^0.4.17;\n\nimport \"./Ownable.sol\";\n\ncontract CertStore is Ownable {\n\n  // Events\n  event LogProofSaved(bytes32 proof, string universityCode, string studentID, string certID, string course, uint _time);\n  event LogAddUniversity(address _university, uint _time);\n  event LogAddUser(address _user, uint _time);\n\n  address[10] public universities; // Increase this to 10000 before going live in production\n  uint public universitiesCount;\n\n  address[10] public users;\n  uint public usersCount;\n\n  struct Cert {\n    string universityCode;\n    string studentID;\n    string certID;\n    string course;\n    bool initialized;\n  }\n\n  mapping (bytes32 => Cert) public proofs;\n  mapping (address => bool) public accountableIntitutions;\n\n  function CertStore() public {\n    // Wrap this in an \"IF ENV == DEV //\n\n    // ADD YOUR OWN ADDRESSES IN THE SECTION BELOW:\n    // Add Ganache's first account to the AI list for testing via solidity tests\n    accountableIntitutions[0xF6B39cE8221a48A0cecA0B4D375682C622e1829B] = true;\n\n    // Create the Mock Universities\n    universities[0] = 0xAFB2Ddcf3a047C4849Bb0971B424Cd62Cfb4eA31; // UJ\n    accountableIntitutions[0xAFB2Ddcf3a047C4849Bb0971B424Cd62Cfb4eA31] = true;\n\n    universities[1] = 0xC5fdf4076b8F3A5357c5E395ab970B5B54098Fef; // UCT\n    accountableIntitutions[0xC5fdf4076b8F3A5357c5E395ab970B5B54098Fef] = true;\n\n    universities[2] = 0x74d6D051B6004C99FFc932540bb5C06F7afFBa62; // UP\n    accountableIntitutions[0x74d6D051B6004C99FFc932540bb5C06F7afFBa62] = true;\n\n    universitiesCount = 3;\n\n    // Create the mock Users - THESE AREN'T NEEDED UNTIL SERVICE GETS MONITISED\n    users[0] = 0x217735C6cF3C09037EAB60f7C4fAD2C197994D7D;\n    users[1] = 0xe292c3F3f11F63A33FDA8Ee168d3797E5E7A16c5;\n    users[2] = 0xA00791Da14b623D56D4c5598eAF478c7C4A5945a;\n    users[3] = 0xD067220c87d629110EBA04EC5d00272b2139B954;\n    usersCount = 4;\n\n    // DUMMY PROOF\n    storeProof(\"UJ\", \"8205215089084\", \"ABCD1234\", \"BSC\");\n\n  }\n\n  // Admin can add Universities\n  function addUniversity(address _universityAddress) public onlyOwner returns (bool returnCode) {\n    universities[universitiesCount] = _universityAddress;\n    accountableIntitutions[_universityAddress] = true;\n    universitiesCount++;\n\n    LogAddUniversity(_universityAddress, now);\n\n    return true;\n  }\n\n  // Admin can add Users\n  function addUser(address _usersAddress) public onlyOwner returns (bool returnCode) {\n    users[usersCount] = _usersAddress;\n    usersCount++;\n\n    LogAddUser(_usersAddress, now);\n\n    return true;\n  }\n  \n  function storeProof(string universityCode, string studentID, string certID, string course) public returns (bool returnCode) {\n    \n    require(accountableIntitutions[msg.sender]);\n\n    Cert memory cert = Cert(universityCode, studentID, certID, course, true);\n    bytes32 proof = keccak256(universityCode, studentID, certID, course);\n\n    proofs[proof] = cert;\n\n    LogProofSaved(proof, universityCode, studentID, certID, course, now);\n\n    return true;\n\n  }\n\n  function verifyProof(string universityCode, string studentID, string certID, string course) public constant returns (bool returnCode) {\n\n    bytes32 proof = keccak256(universityCode, studentID, certID, course);\n\n    if (proofs[proof].initialized) {\n      return true;\n    } \n\n    return false;\n\n  }\n\n  function verifyProof(bytes32 proof) public view returns (bool returnCode) {\n\n    if (proofs[proof].initialized) {\n      return true;\n    } \n\n    return false;\n\n  }\n  \n  // Return universities list \n  function getUniversities() public view returns (address[10]) {\n    return universities;\n  }\n\n  // Return users list \n  function getUsers() public view returns (address[10]) {\n    return users;\n  }\n\n  /**\n   * @dev Throws if called by any account other than the owner.\n   * NOT CURRENTLY USED - Meant for storeProof\n   */\n  modifier onlyAccountableIntitutions() {\n    require(accountableIntitutions[msg.sender] = true);\n    _;\n  }\n\n}\n",
  "sourcePath": "/Users/admin2015/Desktop/Wolfpack/UnlockTheBlock/contracts/CertStore.sol",
  "compiler": {
    "name": "solc",
    "version": "0.4.18+commit.9cf6e910.Emscripten.clang"
  },
  "schemaVersion": "1.0.1",
  "updatedAt": "2018-02-01T05:20:57.910Z"
}